{
  "contractName": "Pool",
  "abi": [
    {
      "inputs": [
        {
          "internalType": "address",
          "name": "dai_",
          "type": "address"
        },
        {
          "internalType": "address",
          "name": "fyDai_",
          "type": "address"
        },
        {
          "internalType": "string",
          "name": "name_",
          "type": "string"
        },
        {
          "internalType": "string",
          "name": "symbol_",
          "type": "string"
        }
      ],
      "stateMutability": "nonpayable",
      "type": "constructor"
    },
    {
      "anonymous": false,
      "inputs": [
        {
          "indexed": true,
          "internalType": "address",
          "name": "owner",
          "type": "address"
        },
        {
          "indexed": true,
          "internalType": "address",
          "name": "spender",
          "type": "address"
        },
        {
          "indexed": false,
          "internalType": "uint256",
          "name": "value",
          "type": "uint256"
        }
      ],
      "name": "Approval",
      "type": "event"
    },
    {
      "anonymous": false,
      "inputs": [
        {
          "indexed": true,
          "internalType": "address",
          "name": "user",
          "type": "address"
        },
        {
          "indexed": true,
          "internalType": "address",
          "name": "delegate",
          "type": "address"
        },
        {
          "indexed": false,
          "internalType": "bool",
          "name": "enabled",
          "type": "bool"
        }
      ],
      "name": "Delegate",
      "type": "event"
    },
    {
      "anonymous": false,
      "inputs": [
        {
          "indexed": false,
          "internalType": "uint256",
          "name": "maturity",
          "type": "uint256"
        },
        {
          "indexed": true,
          "internalType": "address",
          "name": "from",
          "type": "address"
        },
        {
          "indexed": true,
          "internalType": "address",
          "name": "to",
          "type": "address"
        },
        {
          "indexed": false,
          "internalType": "int256",
          "name": "daiTokens",
          "type": "int256"
        },
        {
          "indexed": false,
          "internalType": "int256",
          "name": "fyDaiTokens",
          "type": "int256"
        },
        {
          "indexed": false,
          "internalType": "int256",
          "name": "poolTokens",
          "type": "int256"
        }
      ],
      "name": "Liquidity",
      "type": "event"
    },
    {
      "anonymous": false,
      "inputs": [
        {
          "indexed": false,
          "internalType": "uint256",
          "name": "maturity",
          "type": "uint256"
        },
        {
          "indexed": true,
          "internalType": "address",
          "name": "from",
          "type": "address"
        },
        {
          "indexed": true,
          "internalType": "address",
          "name": "to",
          "type": "address"
        },
        {
          "indexed": false,
          "internalType": "int256",
          "name": "daiTokens",
          "type": "int256"
        },
        {
          "indexed": false,
          "internalType": "int256",
          "name": "fyDaiTokens",
          "type": "int256"
        }
      ],
      "name": "Trade",
      "type": "event"
    },
    {
      "anonymous": false,
      "inputs": [
        {
          "indexed": true,
          "internalType": "address",
          "name": "from",
          "type": "address"
        },
        {
          "indexed": true,
          "internalType": "address",
          "name": "to",
          "type": "address"
        },
        {
          "indexed": false,
          "internalType": "uint256",
          "name": "value",
          "type": "uint256"
        }
      ],
      "name": "Transfer",
      "type": "event"
    },
    {
      "inputs": [],
      "name": "DELEGABLE_DOMAIN",
      "outputs": [
        {
          "internalType": "bytes32",
          "name": "",
          "type": "bytes32"
        }
      ],
      "stateMutability": "view",
      "type": "function"
    },
    {
      "inputs": [],
      "name": "DOMAIN_SEPARATOR",
      "outputs": [
        {
          "internalType": "bytes32",
          "name": "",
          "type": "bytes32"
        }
      ],
      "stateMutability": "view",
      "type": "function"
    },
    {
      "inputs": [],
      "name": "PERMIT_TYPEHASH",
      "outputs": [
        {
          "internalType": "bytes32",
          "name": "",
          "type": "bytes32"
        }
      ],
      "stateMutability": "view",
      "type": "function"
    },
    {
      "inputs": [],
      "name": "SIGNATURE_TYPEHASH",
      "outputs": [
        {
          "internalType": "bytes32",
          "name": "",
          "type": "bytes32"
        }
      ],
      "stateMutability": "view",
      "type": "function"
    },
    {
      "inputs": [
        {
          "internalType": "address",
          "name": "delegate",
          "type": "address"
        }
      ],
      "name": "addDelegate",
      "outputs": [],
      "stateMutability": "nonpayable",
      "type": "function"
    },
    {
      "inputs": [
        {
          "internalType": "address",
          "name": "user",
          "type": "address"
        },
        {
          "internalType": "address",
          "name": "delegate",
          "type": "address"
        },
        {
          "internalType": "uint256",
          "name": "deadline",
          "type": "uint256"
        },
        {
          "internalType": "uint8",
          "name": "v",
          "type": "uint8"
        },
        {
          "internalType": "bytes32",
          "name": "r",
          "type": "bytes32"
        },
        {
          "internalType": "bytes32",
          "name": "s",
          "type": "bytes32"
        }
      ],
      "name": "addDelegateBySignature",
      "outputs": [],
      "stateMutability": "nonpayable",
      "type": "function"
    },
    {
      "inputs": [
        {
          "internalType": "address",
          "name": "owner",
          "type": "address"
        },
        {
          "internalType": "address",
          "name": "spender",
          "type": "address"
        }
      ],
      "name": "allowance",
      "outputs": [
        {
          "internalType": "uint256",
          "name": "",
          "type": "uint256"
        }
      ],
      "stateMutability": "view",
      "type": "function"
    },
    {
      "inputs": [
        {
          "internalType": "address",
          "name": "spender",
          "type": "address"
        },
        {
          "internalType": "uint256",
          "name": "amount",
          "type": "uint256"
        }
      ],
      "name": "approve",
      "outputs": [
        {
          "internalType": "bool",
          "name": "",
          "type": "bool"
        }
      ],
      "stateMutability": "nonpayable",
      "type": "function"
    },
    {
      "inputs": [
        {
          "internalType": "address",
          "name": "account",
          "type": "address"
        }
      ],
      "name": "balanceOf",
      "outputs": [
        {
          "internalType": "uint256",
          "name": "",
          "type": "uint256"
        }
      ],
      "stateMutability": "view",
      "type": "function"
    },
    {
      "inputs": [],
      "name": "dai",
      "outputs": [
        {
          "internalType": "contract IERC20",
          "name": "",
          "type": "address"
        }
      ],
      "stateMutability": "view",
      "type": "function"
    },
    {
      "inputs": [],
      "name": "decimals",
      "outputs": [
        {
          "internalType": "uint8",
          "name": "",
          "type": "uint8"
        }
      ],
      "stateMutability": "view",
      "type": "function"
    },
    {
      "inputs": [
        {
          "internalType": "address",
          "name": "spender",
          "type": "address"
        },
        {
          "internalType": "uint256",
          "name": "subtractedValue",
          "type": "uint256"
        }
      ],
      "name": "decreaseAllowance",
      "outputs": [
        {
          "internalType": "bool",
          "name": "",
          "type": "bool"
        }
      ],
      "stateMutability": "nonpayable",
      "type": "function"
    },
    {
      "inputs": [
        {
          "internalType": "address",
          "name": "",
          "type": "address"
        },
        {
          "internalType": "address",
          "name": "",
          "type": "address"
        }
      ],
      "name": "delegated",
      "outputs": [
        {
          "internalType": "bool",
          "name": "",
          "type": "bool"
        }
      ],
      "stateMutability": "view",
      "type": "function"
    },
    {
      "inputs": [],
      "name": "fyDai",
      "outputs": [
        {
          "internalType": "contract IFYDai",
          "name": "",
          "type": "address"
        }
      ],
      "stateMutability": "view",
      "type": "function"
    },
    {
      "inputs": [],
      "name": "g1",
      "outputs": [
        {
          "internalType": "int128",
          "name": "",
          "type": "int128"
        }
      ],
      "stateMutability": "view",
      "type": "function"
    },
    {
      "inputs": [],
      "name": "g2",
      "outputs": [
        {
          "internalType": "int128",
          "name": "",
          "type": "int128"
        }
      ],
      "stateMutability": "view",
      "type": "function"
    },
    {
      "inputs": [
        {
          "internalType": "address",
          "name": "spender",
          "type": "address"
        },
        {
          "internalType": "uint256",
          "name": "addedValue",
          "type": "uint256"
        }
      ],
      "name": "increaseAllowance",
      "outputs": [
        {
          "internalType": "bool",
          "name": "",
          "type": "bool"
        }
      ],
      "stateMutability": "nonpayable",
      "type": "function"
    },
    {
      "inputs": [],
      "name": "k",
      "outputs": [
        {
          "internalType": "int128",
          "name": "",
          "type": "int128"
        }
      ],
      "stateMutability": "view",
      "type": "function"
    },
    {
      "inputs": [],
      "name": "maturity",
      "outputs": [
        {
          "internalType": "uint128",
          "name": "",
          "type": "uint128"
        }
      ],
      "stateMutability": "view",
      "type": "function"
    },
    {
      "inputs": [],
      "name": "name",
      "outputs": [
        {
          "internalType": "string",
          "name": "",
          "type": "string"
        }
      ],
      "stateMutability": "view",
      "type": "function"
    },
    {
      "inputs": [
        {
          "internalType": "address",
          "name": "",
          "type": "address"
        }
      ],
      "name": "nonces",
      "outputs": [
        {
          "internalType": "uint256",
          "name": "",
          "type": "uint256"
        }
      ],
      "stateMutability": "view",
      "type": "function"
    },
    {
      "inputs": [
        {
          "internalType": "address",
          "name": "owner",
          "type": "address"
        },
        {
          "internalType": "address",
          "name": "spender",
          "type": "address"
        },
        {
          "internalType": "uint256",
          "name": "amount",
          "type": "uint256"
        },
        {
          "internalType": "uint256",
          "name": "deadline",
          "type": "uint256"
        },
        {
          "internalType": "uint8",
          "name": "v",
          "type": "uint8"
        },
        {
          "internalType": "bytes32",
          "name": "r",
          "type": "bytes32"
        },
        {
          "internalType": "bytes32",
          "name": "s",
          "type": "bytes32"
        }
      ],
      "name": "permit",
      "outputs": [],
      "stateMutability": "nonpayable",
      "type": "function"
    },
    {
      "inputs": [
        {
          "internalType": "address",
          "name": "delegate",
          "type": "address"
        }
      ],
      "name": "revokeDelegate",
      "outputs": [],
      "stateMutability": "nonpayable",
      "type": "function"
    },
    {
      "inputs": [
        {
          "internalType": "address",
          "name": "",
          "type": "address"
        }
      ],
      "name": "signatureCount",
      "outputs": [
        {
          "internalType": "uint256",
          "name": "",
          "type": "uint256"
        }
      ],
      "stateMutability": "view",
      "type": "function"
    },
    {
      "inputs": [],
      "name": "symbol",
      "outputs": [
        {
          "internalType": "string",
          "name": "",
          "type": "string"
        }
      ],
      "stateMutability": "view",
      "type": "function"
    },
    {
      "inputs": [],
      "name": "totalSupply",
      "outputs": [
        {
          "internalType": "uint256",
          "name": "",
          "type": "uint256"
        }
      ],
      "stateMutability": "view",
      "type": "function"
    },
    {
      "inputs": [
        {
          "internalType": "address",
          "name": "recipient",
          "type": "address"
        },
        {
          "internalType": "uint256",
          "name": "amount",
          "type": "uint256"
        }
      ],
      "name": "transfer",
      "outputs": [
        {
          "internalType": "bool",
          "name": "",
          "type": "bool"
        }
      ],
      "stateMutability": "nonpayable",
      "type": "function"
    },
    {
      "inputs": [
        {
          "internalType": "address",
          "name": "sender",
          "type": "address"
        },
        {
          "internalType": "address",
          "name": "recipient",
          "type": "address"
        },
        {
          "internalType": "uint256",
          "name": "amount",
          "type": "uint256"
        }
      ],
      "name": "transferFrom",
      "outputs": [
        {
          "internalType": "bool",
          "name": "",
          "type": "bool"
        }
      ],
      "stateMutability": "nonpayable",
      "type": "function"
    },
    {
      "inputs": [
        {
          "internalType": "uint128",
          "name": "daiIn",
          "type": "uint128"
        }
      ],
      "name": "init",
      "outputs": [],
      "stateMutability": "nonpayable",
      "type": "function"
    },
    {
      "inputs": [
        {
          "internalType": "address",
          "name": "from",
          "type": "address"
        },
        {
          "internalType": "address",
          "name": "to",
          "type": "address"
        },
        {
          "internalType": "uint256",
          "name": "daiOffered",
          "type": "uint256"
        }
      ],
      "name": "mint",
      "outputs": [
        {
          "internalType": "uint256",
          "name": "",
          "type": "uint256"
        }
      ],
      "stateMutability": "nonpayable",
      "type": "function"
    },
    {
      "inputs": [
        {
          "internalType": "address",
          "name": "from",
          "type": "address"
        },
        {
          "internalType": "address",
          "name": "to",
          "type": "address"
        },
        {
          "internalType": "uint256",
          "name": "tokensBurned",
          "type": "uint256"
        }
      ],
      "name": "burn",
      "outputs": [
        {
          "internalType": "uint256",
          "name": "",
          "type": "uint256"
        },
        {
          "internalType": "uint256",
          "name": "",
          "type": "uint256"
        }
      ],
      "stateMutability": "nonpayable",
      "type": "function"
    },
    {
      "inputs": [
        {
          "internalType": "address",
          "name": "from",
          "type": "address"
        },
        {
          "internalType": "address",
          "name": "to",
          "type": "address"
        },
        {
          "internalType": "uint128",
          "name": "daiIn",
          "type": "uint128"
        }
      ],
      "name": "sellDai",
      "outputs": [
        {
          "internalType": "uint128",
          "name": "",
          "type": "uint128"
        }
      ],
      "stateMutability": "nonpayable",
      "type": "function"
    },
    {
      "inputs": [
        {
          "internalType": "uint128",
          "name": "daiIn",
          "type": "uint128"
        }
      ],
      "name": "sellDaiPreview",
      "outputs": [
        {
          "internalType": "uint128",
          "name": "",
          "type": "uint128"
        }
      ],
      "stateMutability": "view",
      "type": "function"
    },
    {
      "inputs": [
        {
          "internalType": "address",
          "name": "from",
          "type": "address"
        },
        {
          "internalType": "address",
          "name": "to",
          "type": "address"
        },
        {
          "internalType": "uint128",
          "name": "daiOut",
          "type": "uint128"
        }
      ],
      "name": "buyDai",
      "outputs": [
        {
          "internalType": "uint128",
          "name": "",
          "type": "uint128"
        }
      ],
      "stateMutability": "nonpayable",
      "type": "function"
    },
    {
      "inputs": [
        {
          "internalType": "uint128",
          "name": "daiOut",
          "type": "uint128"
        }
      ],
      "name": "buyDaiPreview",
      "outputs": [
        {
          "internalType": "uint128",
          "name": "",
          "type": "uint128"
        }
      ],
      "stateMutability": "view",
      "type": "function"
    },
    {
      "inputs": [
        {
          "internalType": "address",
          "name": "from",
          "type": "address"
        },
        {
          "internalType": "address",
          "name": "to",
          "type": "address"
        },
        {
          "internalType": "uint128",
          "name": "fyDaiIn",
          "type": "uint128"
        }
      ],
      "name": "sellFYDai",
      "outputs": [
        {
          "internalType": "uint128",
          "name": "",
          "type": "uint128"
        }
      ],
      "stateMutability": "nonpayable",
      "type": "function"
    },
    {
      "inputs": [
        {
          "internalType": "uint128",
          "name": "fyDaiIn",
          "type": "uint128"
        }
      ],
      "name": "sellFYDaiPreview",
      "outputs": [
        {
          "internalType": "uint128",
          "name": "",
          "type": "uint128"
        }
      ],
      "stateMutability": "view",
      "type": "function"
    },
    {
      "inputs": [
        {
          "internalType": "address",
          "name": "from",
          "type": "address"
        },
        {
          "internalType": "address",
          "name": "to",
          "type": "address"
        },
        {
          "internalType": "uint128",
          "name": "fyDaiOut",
          "type": "uint128"
        }
      ],
      "name": "buyFYDai",
      "outputs": [
        {
          "internalType": "uint128",
          "name": "",
          "type": "uint128"
        }
      ],
      "stateMutability": "nonpayable",
      "type": "function"
    },
    {
      "inputs": [
        {
          "internalType": "uint128",
          "name": "fyDaiOut",
          "type": "uint128"
        }
      ],
      "name": "buyFYDaiPreview",
      "outputs": [
        {
          "internalType": "uint128",
          "name": "",
          "type": "uint128"
        }
      ],
      "stateMutability": "view",
      "type": "function"
    },
    {
      "inputs": [],
      "name": "getFYDaiReserves",
      "outputs": [
        {
          "internalType": "uint128",
          "name": "",
          "type": "uint128"
        }
      ],
      "stateMutability": "view",
      "type": "function"
    },
    {
      "inputs": [],
      "name": "getDaiReserves",
      "outputs": [
        {
          "internalType": "uint128",
          "name": "",
          "type": "uint128"
        }
      ],
      "stateMutability": "view",
      "type": "function"
    }
  ],
  "bytecode": "0x61012060408190527f0d077601844dd17f704bafff948229d27f33b57445915754dfe3d095fda2beb760805280605262005477823960405190819003605201902060c052503480156200005157600080fd5b506040516200551b3803806200551b833981810160405260808110156200007757600080fd5b81516020830151604080850180519151939592948301929184640100000000821115620000a357600080fd5b908301906020820185811115620000b957600080fd5b8251640100000000811182820188101715620000d457600080fd5b82525081516020918201929091019080838360005b8381101562000103578181015183820152602001620000e9565b50505050905090810190601f168015620001315780820380516001836020036101000a031916815260200191505b50604052602001805160405193929190846401000000008211156200015557600080fd5b9083019060208201858111156200016b57600080fd5b82516401000000008111828201881017156200018657600080fd5b82525081516020918201929091019080838360005b83811015620001b55781810151838201526020016200019b565b50505050905090810190601f168015620001e35780820380516001836020036101000a031916815260200191505b50604052505050818181818160039080519060200190620002069291906200049d565b5080516200021c9060049060208401906200049d565b50506005805460ff19166012179055506040514690806052620054c98239604080516052928190038301812081830183526005825264165a595b1960da1b6020928301528251808401845260018152603160f81b908301528251808301919091527f0dc8618f4925c4319195a39ada16304f511bf885ff9f3d63bc6b0f3979e46fb68184015260008051602062005457833981519152606082015260808101959095523060a08087019190915282518087038201815260c09096019283905285519590910194909420909352469291508190620054c98239604080519182900360520182208651602097880120838301835260018452603160f81b938801939093528151808801919091528082019290925260008051602062005457833981519152606083015260808201939093523060a0808301919091528351808303909101815260c0820180855281519187019190912060e052600980546001600160a01b038c81166001600160a01b031992831617909255600a80548c84169216919091179081905563204f83f960e01b90925293516200041e9691909416945063204f83f99360c480840194509192909190829003018186803b158015620003e157600080fd5b505afa158015620003f6573d6000803e3d6000fd5b505050506040513d60208110156200040d57600080fd5b50516001600160e01b036200043a16565b60801b6001600160801b03191661010052506200053792505050565b60006001600160801b0382111562000499576040805162461bcd60e51b815260206004820152601360248201527f506f6f6c3a2043617374206f766572666c6f7700000000000000000000000000604482015290519081900360640190fd5b5090565b828054600181600116156101000203166002900490600052602060002090601f016020900481019282601f10620004e057805160ff191683800117855562000510565b8280016001018555821562000510579182015b8281111562000510578251825591602001919060010190620004f3565b506200049992620005349250905b808211156200049957600081556001016200051e565b90565b60805160a05160c05160e0516101005160801c614e79620005de60003980610b9a5280610d265280610dac52806110b9528061135c528061146c52806114fe528061162852806116ba528061171f52806117a552806117ea52806119775280611c71528061206c52806122e752806128ce525080610c885280612416525080610c5b52806123a9525080610a595280610d005250806109f45280611ced5250614e796000f3fe608060405234801561001057600080fd5b50600436106102535760003560e01c806385561a3411610146578063bdd8a366116100c3578063dd62ed3e11610087578063dd62ed3e146107bc578063e71bdf41146107ea578063f4b9fa7514610810578063f6b911bc14610818578063f6bcbd3114610867578063fa352c001461089557610253565b8063bdd8a366146106e5578063c0bd65d7146106ed578063c6c3bbe6146106f5578063cc5783d31461072b578063d505accf1461076b57610253565b8063a457c2d71161010a578063a457c2d71461061f578063a9059cbb1461064b578063b26be92214610677578063b4f40c61146106b7578063b5d832fe146106bf57610253565b806385561a341461057f57806395d89b41146105a557806398ba4aec146105ad5780639ac95875146105d35780639f1f7f6f146105f957610253565b806339509351116101d45780636970a924116101985780636970a924146104ca57806370a08231146104eb5780637543e39c1461051157806377d739f3146105515780637ecebe001461055957610253565b80633950935114610428578063459e414f146104545780634e20e9521461045c5780635f4d07dc1461048257806360561e051461048a57610253565b806323b872dd1161021b57806323b872dd146103a0578063284f4444146103d657806330adf81f146103fa578063313ce567146104025780633644e5151461042057610253565b806306fdde0314610258578063095ea7b3146102d557806318160ddd146103155780631a28ff051461032f578063204f83f91461037c575b600080fd5b6102606108bb565b6040805160208082528351818301528351919283929083019185019080838360005b8381101561029a578181015183820152602001610282565b50505050905090810190601f1680156102c75780820380516001836020036101000a031916815260200191505b509250505060405180910390f35b610301600480360360408110156102eb57600080fd5b506001600160a01b038135169060200135610951565b604080519115158252519081900360200190f35b61031d61096f565b60408051918252519081900360200190f35b61037a600480360360c081101561034557600080fd5b506001600160a01b03813581169160208101359091169060408101359060ff6060820135169060808101359060a00135610975565b005b610384610b98565b604080516001600160801b039092168252519081900360200190f35b610301600480360360608110156103b657600080fd5b506001600160a01b03813581169160208101359091169060400135610bbc565b6103de610c4a565b604080516001600160a01b039092168252519081900360200190f35b61031d610c59565b61040a610c7d565b6040805160ff9092168252519081900360200190f35b61031d610c86565b6103016004803603604081101561043e57600080fd5b506001600160a01b038135169060200135610caa565b61031d610cfe565b6103846004803603602081101561047257600080fd5b50356001600160801b0316610d22565b610384610def565b610384600480360360608110156104a057600080fd5b5080356001600160a01b0390811691602081013590911690604001356001600160801b0316610e7e565b6104d2611130565b60408051600f92830b90920b8252519081900360200190f35b61031d6004803603602081101561050157600080fd5b50356001600160a01b0316611143565b6103846004803603606081101561052757600080fd5b5080356001600160a01b0390811691602081013590911690604001356001600160801b031661115e565b6103846113d3565b61031d6004803603602081101561056f57600080fd5b50356001600160a01b0316611456565b6103846004803603602081101561059557600080fd5b50356001600160801b0316611468565b6102606115c3565b610384600480360360208110156105c357600080fd5b50356001600160801b0316611624565b610384600480360360208110156105e957600080fd5b50356001600160801b031661171b565b61037a6004803603602081101561060f57600080fd5b50356001600160801b03166117e8565b6103016004803603604081101561063557600080fd5b506001600160a01b0381351690602001356119f1565b6103016004803603604081101561066157600080fd5b506001600160a01b038135169060200135611a5f565b6103846004803603606081101561068d57600080fd5b5080356001600160a01b0390811691602081013590911690604001356001600160801b0316611a73565b6104d2611cb7565b61031d600480360360208110156106d557600080fd5b50356001600160a01b0316611cc6565b6104d2611cd8565b61031d611ceb565b61031d6004803603606081101561070b57600080fd5b506001600160a01b03813581169160208101359091169060400135611d0f565b6103846004803603606081101561074157600080fd5b5080356001600160a01b0390811691602081013590911690604001356001600160801b03166120e9565b61037a600480360360e081101561078157600080fd5b506001600160a01b03813581169160208101359091169060408101359060608101359060ff6080820135169060a08101359060c0013561232a565b61031d600480360360408110156107d257600080fd5b506001600160a01b0381358116916020013516612558565b61037a6004803603602081101561080057600080fd5b50356001600160a01b0316612583565b6103de612590565b61084e6004803603606081101561082e57600080fd5b506001600160a01b0381358116916020810135909116906040013561259f565b6040805192835260208301919091528051918290030190f35b6103016004803603604081101561087d57600080fd5b506001600160a01b038135811691602001351661294a565b61037a600480360360208110156108ab57600080fd5b50356001600160a01b031661296a565b60038054604080516020601f60026000196101006001881615020190951694909404938401819004810282018101909252828152606093909290918301828280156109475780601f1061091c57610100808354040283529160200191610947565b820191906000526020600020905b81548152906001019060200180831161092a57829003601f168201915b5050505050905090565b600061096561095e612974565b8484612978565b5060015b92915050565b60025490565b428410156109ca576040805162461bcd60e51b815260206004820152601c60248201527f44656c656761626c653a205369676e6174757265206578706972656400000000604482015290519081900360640190fd5b6001600160a01b0380871660008181526006602090815260408083208054600180820190925582517f00000000000000000000000000000000000000000000000000000000000000008186015280840196909652958b166060860152608085019590955260a08085018a90528151808603909101815260c08501825280519083012061190160f01b60e08601527f000000000000000000000000000000000000000000000000000000000000000060e286015261010280860182905282518087039091018152610122860180845281519185019190912090859052610142860180845281905260ff8a1661016287015261018286018990526101a2860188905291519095919491926101c2808401939192601f1981019281900390910190855afa158015610afc573d6000803e3d6000fd5b5050604051601f1901519150506001600160a01b03811615801590610b325750886001600160a01b0316816001600160a01b0316145b610b83576040805162461bcd60e51b815260206004820152601c60248201527f44656c656761626c653a20496e76616c6964207369676e617475726500000000604482015290519081900360640190fd5b610b8d8989612a64565b505050505050505050565b7f000000000000000000000000000000000000000000000000000000000000000081565b6000610bc9848484612b4b565b610c3f84610bd5612974565b610c3a85604051806060016040528060288152602001614d29602891396001600160a01b038a16600090815260016020526040812090610c13612974565b6001600160a01b03168152602081019190915260400160002054919063ffffffff612cb216565b612978565b5060015b9392505050565b600a546001600160a01b031681565b7f000000000000000000000000000000000000000000000000000000000000000081565b60055460ff1690565b7f000000000000000000000000000000000000000000000000000000000000000081565b6000610965610cb7612974565b84610c3a8560016000610cc8612974565b6001600160a01b03908116825260208083019390935260409182016000908120918c16815292529020549063ffffffff612d0c16565b7f000000000000000000000000000000000000000000000000000000000000000081565b60007f00000000000000000000000000000000000000000000000000000000000000006001600160801b03164210610d92576040805162461bcd60e51b815260206004820152600e60248201526d506f6f6c3a20546f6f206c61746560901b604482015290519081900360640190fd5b610969610d9d6113d3565b610da5610def565b84610dda427f00000000000000000000000000000000000000000000000000000000000000006001600160801b031603612d66565b64220c523d7268010d79435e50d79435612dbe565b6000610e79610dfc61096f565b600a54604080516370a0823160e01b815230600482015290516001600160a01b03909216916370a0823191602480820192602092909190829003018186803b158015610e4757600080fd5b505afa158015610e5b573d6000803e3d6000fd5b505050506040513d6020811015610e7157600080fd5b505101612d66565b905090565b6000836040518060400160405280601d8152602001600080516020614d72833981519152815250816001600160a01b0316336001600160a01b03161480610ee857506001600160a01b038216600090815260076020908152604080832033845290915290205460ff165b8190610f725760405162461bcd60e51b81526004018080602001828103825283818151815260200191508051906020019080838360005b83811015610f37578181015183820152602001610f1f565b50505050905090810190601f168015610f645780820380516001836020036101000a031916815260200191505b509250505060405180910390fd5b506000610f7e8561171b565b600a54604080516323b872dd60e01b81526001600160a01b038b811660048301523060248301526001600160801b038a16604483015291519394509116916323b872dd916064808201926020929091908290030181600087803b158015610fe457600080fd5b505af1158015610ff8573d6000803e3d6000fd5b505050506040513d602081101561100e57600080fd5b50506009546040805163a9059cbb60e01b81526001600160a01b0389811660048301526001600160801b03851660248301529151919092169163a9059cbb9160448083019260209291908290030181600087803b15801561106e57600080fd5b505af1158015611082573d6000803e3d6000fd5b505050506040513d602081101561109857600080fd5b50506001600160a01b03808716908816600080516020614c9d8339815191527f00000000000000000000000000000000000000000000000000000000000000006110ea6001600160801b038616612fb8565b6110fc8a6001600160801b0316612fb8565b604080516001600160801b039094168452602084019290925260000382820152519081900360600190a39695505050505050565b6103b66903e800000000000000005b0481565b6001600160a01b031660009081526020819052604090205490565b6000836040518060400160405280601d8152602001600080516020614d72833981519152815250816001600160a01b0316336001600160a01b031614806111c857506001600160a01b038216600090815260076020908152604080832033845290915290205460ff165b81906112155760405162461bcd60e51b8152602060048201818152835160248401528351909283926044909101919085019080838360008315610f37578181015183820152602001610f1f565b50600061122185611624565b600954604080516323b872dd60e01b81526001600160a01b038b811660048301523060248301526001600160801b038516604483015291519394509116916323b872dd916064808201926020929091908290030181600087803b15801561128757600080fd5b505af115801561129b573d6000803e3d6000fd5b505050506040513d60208110156112b157600080fd5b5050600a546040805163a9059cbb60e01b81526001600160a01b0389811660048301526001600160801b03891660248301529151919092169163a9059cbb9160448083019260209291908290030181600087803b15801561131157600080fd5b505af1158015611325573d6000803e3d6000fd5b505050506040513d602081101561133b57600080fd5b50506001600160a01b03808716908816600080516020614c9d8339815191527f000000000000000000000000000000000000000000000000000000000000000061138d6001600160801b038616612fb8565b6000036113a28a6001600160801b0316612fb8565b604080516001600160801b039094168452602084019290925282820152519081900360600190a39695505050505050565b600954604080516370a0823160e01b81523060048201529051600092610e79926001600160a01b03909116916370a0823191602480820192602092909190829003018186803b15801561142557600080fd5b505afa158015611439573d6000803e3d6000fd5b505050506040513d602081101561144f57600080fd5b5051612d66565b60086020526000908152604090205481565b60007f00000000000000000000000000000000000000000000000000000000000000006001600160801b031642106114d8576040805162461bcd60e51b815260206004820152600e60248201526d506f6f6c3a20546f6f206c61746560901b604482015290519081900360640190fd5b60006114e26113d3565b905060006114ee610def565b9050600061154083838761152c427f00000000000000000000000000000000000000000000000000000000000000006001600160801b031603612d66565b64220c523d7267f33333333333333361300c565b905061154c83866131e9565b6001600160801b031661155f838361324f565b6001600160801b031610156115bb576040805162461bcd60e51b815260206004820152601c60248201527f506f6f6c3a20667944616920726573657276657320746f6f206c6f7700000000604482015290519081900360640190fd5b949350505050565b60048054604080516020601f60026000196101006001881615020190951694909404938401819004810282018101909252828152606093909290918301828280156109475780601f1061091c57610100808354040283529160200191610947565b60007f00000000000000000000000000000000000000000000000000000000000000006001600160801b03164210611694576040805162461bcd60e51b815260206004820152600e60248201526d506f6f6c3a20546f6f206c61746560901b604482015290519081900360640190fd5b600061169e6113d3565b905060006116aa610def565b905060006116fc8383876116e8427f00000000000000000000000000000000000000000000000000000000000000006001600160801b031603612d66565b64220c523d7267f3333333333333336132be565b905061170883826131e9565b6001600160801b031661155f838761324f565b60007f00000000000000000000000000000000000000000000000000000000000000006001600160801b0316421061178b576040805162461bcd60e51b815260206004820152600e60248201526d506f6f6c3a20546f6f206c61746560901b604482015290519081900360640190fd5b6109696117966113d3565b61179e610def565b846117d3427f00000000000000000000000000000000000000000000000000000000000000006001600160801b031603612d66565b64220c523d7268010d79435e50d794356134a3565b7f00000000000000000000000000000000000000000000000000000000000000006001600160801b03164210611856576040805162461bcd60e51b815260206004820152600e60248201526d506f6f6c3a20546f6f206c61746560901b604482015290519081900360640190fd5b61185e61096f565b156118b0576040805162461bcd60e51b815260206004820152601960248201527f506f6f6c3a20416c726561647920696e697469616c697a656400000000000000604482015290519081900360640190fd5b600954604080516323b872dd60e01b81523360048201523060248201526001600160801b038416604482015290516001600160a01b03909216916323b872dd916064808201926020929091908290030181600087803b15801561191257600080fd5b505af1158015611926573d6000803e3d6000fd5b505050506040513d602081101561193c57600080fd5b506119529050336001600160801b038316613656565b33807fd9b421596e3bc3caf78305bc0d270566916f58cd61b71c9c2a3d923a3ea3ea8b7f00000000000000000000000000000000000000000000000000000000000000006119a86001600160801b038616612fb8565b60000360006119bf876001600160801b0316612fb8565b604080516001600160801b0390951685526020850193909352838301919091526060830152519081900360800190a350565b60006109656119fe612974565b84610c3a85604051806060016040528060258152602001614e1f6025913960016000611a28612974565b6001600160a01b03908116825260208083019390935260409182016000908120918d1681529252902054919063ffffffff612cb216565b6000610965611a6c612974565b8484612b4b565b6000836040518060400160405280601d8152602001600080516020614d72833981519152815250816001600160a01b0316336001600160a01b03161480611add57506001600160a01b038216600090815260076020908152604080832033845290915290205460ff165b8190611b2a5760405162461bcd60e51b8152602060048201818152835160248401528351909283926044909101919085019080838360008315610f37578181015183820152602001610f1f565b506000611b3685611468565b600954604080516323b872dd60e01b81526001600160a01b038b811660048301523060248301526001600160801b038a16604483015291519394509116916323b872dd916064808201926020929091908290030181600087803b158015611b9c57600080fd5b505af1158015611bb0573d6000803e3d6000fd5b505050506040513d6020811015611bc657600080fd5b5050600a546040805163a9059cbb60e01b81526001600160a01b0389811660048301526001600160801b03851660248301529151919092169163a9059cbb9160448083019260209291908290030181600087803b158015611c2657600080fd5b505af1158015611c3a573d6000803e3d6000fd5b505050506040513d6020811015611c5057600080fd5b50506001600160a01b03808716908816600080516020614c9d8339815191527f0000000000000000000000000000000000000000000000000000000000000000611ca26001600160801b038a16612fb8565b6000036113a2866001600160801b0316612fb8565b630784ce00600160401b61113f565b60066020526000908152604090205481565b6103e86903b6000000000000000061113f565b7f000000000000000000000000000000000000000000000000000000000000000081565b6000836040518060400160405280601d8152602001600080516020614d72833981519152815250816001600160a01b0316336001600160a01b03161480611d7957506001600160a01b038216600090815260076020908152604080832033845290915290205460ff165b8190611dc65760405162461bcd60e51b8152602060048201818152835160248401528351909283926044909101919085019080838360008315610f37578181015183820152602001610f1f565b506000611dd161096f565b600954604080516370a0823160e01b815230600482015290519293506000926001600160a01b03909216916370a0823191602480820192602092909190829003018186803b158015611e2257600080fd5b505afa158015611e36573d6000803e3d6000fd5b505050506040513d6020811015611e4c57600080fd5b5051600a54604080516370a0823160e01b815230600482015290519293506000926001600160a01b03909216916370a0823191602480820192602092909190829003018186803b158015611e9f57600080fd5b505afa158015611eb3573d6000803e3d6000fd5b505050506040513d6020811015611ec957600080fd5b505190506000611eef83611ee3868b63ffffffff61375216565b9063ffffffff6137ab16565b90506000611f0785611ee3858563ffffffff61375216565b600954604080516323b872dd60e01b81526001600160a01b038f81166004830152306024830152604482018e905291519394509116916323b872dd916064808201926020929091908290030181600087803b158015611f6557600080fd5b505af1158015611f79573d6000803e3d6000fd5b505050506040513d6020811015611f8f57600080fd5b5051611f9a57600080fd5b600a54604080516323b872dd60e01b81526001600160a01b038e8116600483015230602483015260448201859052915191909216916323b872dd9160648083019260209291908290030181600087803b158015611ff657600080fd5b505af115801561200a573d6000803e3d6000fd5b505050506040513d602081101561202057600080fd5b505161202b57600080fd5b6120358a83613656565b896001600160a01b03168b6001600160a01b03167fd9b421596e3bc3caf78305bc0d270566916f58cd61b71c9c2a3d923a3ea3ea8b7f00000000000000000000000000000000000000000000000000000000000000006120948d612fb8565b6000036120a086612fb8565b6000036120ac88612fb8565b604080516001600160801b0390951685526020850193909352838301919091526060830152519081900360800190a3509998505050505050505050565b6000836040518060400160405280601d8152602001600080516020614d72833981519152815250816001600160a01b0316336001600160a01b0316148061215357506001600160a01b038216600090815260076020908152604080832033845290915290205460ff165b81906121a05760405162461bcd60e51b8152602060048201818152835160248401528351909283926044909101919085019080838360008315610f37578181015183820152602001610f1f565b5060006121ac85610d22565b600a54604080516323b872dd60e01b81526001600160a01b038b811660048301523060248301526001600160801b038516604483015291519394509116916323b872dd916064808201926020929091908290030181600087803b15801561221257600080fd5b505af1158015612226573d6000803e3d6000fd5b505050506040513d602081101561223c57600080fd5b50506009546040805163a9059cbb60e01b81526001600160a01b0389811660048301526001600160801b03891660248301529151919092169163a9059cbb9160448083019260209291908290030181600087803b15801561229c57600080fd5b505af11580156122b0573d6000803e3d6000fd5b505050506040513d60208110156122c657600080fd5b50506001600160a01b03808716908816600080516020614c9d8339815191527f00000000000000000000000000000000000000000000000000000000000000006123186001600160801b038a16612fb8565b6110fc866001600160801b0316612fb8565b4284101561237f576040805162461bcd60e51b815260206004820152601d60248201527f45524332305065726d69743a206578706972656420646561646c696e65000000604482015290519081900360640190fd5b6001600160a01b0380881660008181526008602090815260408083208054600180820190925582517f00000000000000000000000000000000000000000000000000000000000000008186015280840196909652958c166060860152608085018b905260a085019590955260c08085018a90528151808603909101815260e08501825280519083012061190160f01b6101008601527f000000000000000000000000000000000000000000000000000000000000000061010286015261012280860182905282518087039091018152610142860180845281519185019190912090859052610162860180845281905260ff8a166101828701526101a286018990526101c2860188905291519095919491926101e2808401939192601f1981019281900390910190855afa1580156124ba573d6000803e3d6000fd5b5050604051601f1901519150506001600160a01b038116158015906124f05750896001600160a01b0316816001600160a01b0316145b612541576040805162461bcd60e51b815260206004820152601e60248201527f45524332305065726d69743a20696e76616c6964207369676e61747572650000604482015290519081900360640190fd5b61254c8a8a8a612978565b50505050505050505050565b6001600160a01b03918216600090815260016020908152604080832093909416825291909152205490565b61258d3382612a64565b50565b6009546001600160a01b031681565b600080846040518060400160405280601d8152602001600080516020614d72833981519152815250816001600160a01b0316336001600160a01b0316148061260a57506001600160a01b038216600090815260076020908152604080832033845290915290205460ff165b81906126575760405162461bcd60e51b8152602060048201818152835160248401528351909283926044909101919085019080838360008315610f37578181015183820152602001610f1f565b50600061266261096f565b600954604080516370a0823160e01b815230600482015290519293506000926001600160a01b03909216916370a0823191602480820192602092909190829003018186803b1580156126b357600080fd5b505afa1580156126c7573d6000803e3d6000fd5b505050506040513d60208110156126dd57600080fd5b5051600a54604080516370a0823160e01b81523060048201529051929350600092839283926001600160a01b03909116916370a0823191602480820192602092909190829003018186803b15801561273457600080fd5b505afa158015612748573d6000803e3d6000fd5b505050506040513d602081101561275e57600080fd5b5051905061277685611ee38c8763ffffffff61375216565b925061278c85611ee38c8463ffffffff61375216565b9150506127998b8a6137ed565b6009546040805163a9059cbb60e01b81526001600160a01b038d81166004830152602482018690529151919092169163a9059cbb9160448083019260209291908290030181600087803b1580156127ef57600080fd5b505af1158015612803573d6000803e3d6000fd5b505050506040513d602081101561281957600080fd5b5050600a546040805163a9059cbb60e01b81526001600160a01b038d81166004830152602482018590529151919092169163a9059cbb9160448083019260209291908290030181600087803b15801561287157600080fd5b505af1158015612885573d6000803e3d6000fd5b505050506040513d602081101561289b57600080fd5b50506001600160a01b03808b16908c167fd9b421596e3bc3caf78305bc0d270566916f58cd61b71c9c2a3d923a3ea3ea8b7f00000000000000000000000000000000000000000000000000000000000000006128f686612fb8565b6128ff86612fb8565b6129088f612fb8565b604080516001600160801b0390951685526020850193909352838301919091526000036060830152519081900360800190a3909a909950975050505050505050565b600760209081526000928352604080842090915290825290205460ff1681565b61258d33826138f5565b3390565b6001600160a01b0383166129bd5760405162461bcd60e51b8152600401808060200182810382526024815260200180614db76024913960400191505060405180910390fd5b6001600160a01b038216612a025760405162461bcd60e51b8152600401808060200182810382526022815260200180614c556022913960400191505060405180910390fd5b6001600160a01b03808416600081815260016020908152604080832094871680845294825291829020859055815185815291517f8c5be1e5ebec7d5bd14f71427d1e84f3dd0314c0f7b2291e5b200ac8c7c3b9259281900390910190a3505050565b6001600160a01b0380831660009081526007602090815260408083209385168352929052205460ff1615612adf576040805162461bcd60e51b815260206004820152601c60248201527f44656c656761626c653a20416c72656164792064656c65676174656400000000604482015290519081900360640190fd5b6001600160a01b03808316600081815260076020908152604080832094861680845294825291829020805460ff19166001908117909155825190815291517f045b0fef01772d2fbba53dbd38c9777806eac0865b00af43abcfbcaf50da92069281900390910190a35050565b6001600160a01b038316612b905760405162461bcd60e51b8152600401808060200182810382526025815260200180614d926025913960400191505060405180910390fd5b6001600160a01b038216612bd55760405162461bcd60e51b8152600401808060200182810382526023815260200180614be46023913960400191505060405180910390fd5b612be08383836139d3565b612c2381604051806060016040528060268152602001614c77602691396001600160a01b038616600090815260208190526040902054919063ffffffff612cb216565b6001600160a01b038085166000908152602081905260408082209390935590841681522054612c58908263ffffffff612d0c16565b6001600160a01b038084166000818152602081815260409182902094909455805185815290519193928716927fddf252ad1be2c89b69c2b068fc378daa952ba7f163c4a11628f55a4df523b3ef92918290030190a3505050565b60008184841115612d045760405162461bcd60e51b8152602060048201818152835160248401528351909283926044909101919085019080838360008315610f37578181015183820152602001610f1f565b505050900390565b600082820183811015610c43576040805162461bcd60e51b815260206004820152601b60248201527f536166654d6174683a206164646974696f6e206f766572666c6f770000000000604482015290519081900360640190fd5b60006001600160801b03821115612dba576040805162461bcd60e51b8152602060048201526013602482015272506f6f6c3a2043617374206f766572666c6f7760681b604482015290519081900360640190fd5b5090565b600080612ddc84612dd7876001600160801b03166139d8565b6139f6565b90506000612df7600160401b612df286856139f6565b613a2d565b9050600081600f0b13612e3f576040805162461bcd60e51b81526020600482018190526024820152600080516020614ddb833981519152604482015290519081900360640190fd5b6001600160801b03808816908a1603600160801b8110612ea6576040805162461bcd60e51b815260206004820152601b60248201527f5969656c644d6174683a20546f6f206d75636820446169206f75740000000000604482015290519081900360640190fd5b6000612eb78284600160401b613a60565b612ec68b85600160401b613a60565b612ed58d86600160401b613a60565b01039050600160801b8110612f1b5760405162461bcd60e51b815260040180806020018281038252602c815260200180614c07602c913960400191505060405180910390fd5b60008a6001600160801b0316612f3683600160401b87613a60565b039050600160801b8110612f7b5760405162461bcd60e51b8152600401808060200182810382526021815260200180614cbd6021913960400191505060405180910390fd5b6fffffffffffffffffffffff172b5aefff8110612f9f576001600160801b03612fa8565b8064e8d4a51000015b9c9b505050505050505050505050565b60006001600160ff1b03821115612dba576040805162461bcd60e51b8152602060048201526013602482015272506f6f6c3a2043617374206f766572666c6f7760681b604482015290519081900360640190fd5b60008061302584612dd7876001600160801b03166139d8565b9050600061303b600160401b612df286856139f6565b9050600081600f0b13613083576040805162461bcd60e51b81526020600482018190526024820152600080516020614ddb833981519152604482015290519081900360640190fd5b6001600160801b0389811690881601600160801b81106130ea576040805162461bcd60e51b815260206004820152601a60248201527f5969656c644d6174683a20546f6f206d7563682044616920696e000000000000604482015290519081900360640190fd5b60006130fb8284600160401b613a60565b61310a8b85600160401b613a60565b6131198d86600160401b613a60565b01039050600160801b811061315f5760405162461bcd60e51b8152600401808060200182810382526026815260200180614bbe6026913960400191505060405180910390fd5b600061317082600160401b86613a60565b8b6001600160801b0316039050600160801b81106131bf5760405162461bcd60e51b8152600401808060200182810382526021815260200180614cbd6021913960400191505060405180910390fd5b64e8d4a5100081116131d2576000612fa8565b64e8d4a50fff19019b9a5050505050505050505050565b60008282016001600160801b038085169082161015610c43576040805162461bcd60e51b815260206004820152601b60248201527f506f6f6c3a2044616920726573657276657320746f6f20686967680000000000604482015290519081900360640190fd5b6000826001600160801b0316826001600160801b031611156132b8576040805162461bcd60e51b815260206004820152601c60248201527f506f6f6c3a20667944616920726573657276657320746f6f206c6f7700000000604482015290519081900360640190fd5b50900390565b6000806132e3600160401b612df285612dd788612dd78b6001600160801b03166139d8565b9050600081600f0b1361332b576040805162461bcd60e51b81526020600482018190526024820152600080516020614ddb833981519152604482015290519081900360640190fd5b6001600160801b0380871690881603600160801b8110613392576040805162461bcd60e51b815260206004820152601d60248201527f5969656c644d6174683a20546f6f206d756368206679446169206f7574000000604482015290519081900360640190fd5b60006133a38284600160401b613a60565b6133b28a85600160401b613a60565b6133c18c86600160401b613a60565b01039050600160801b81106134075760405162461bcd60e51b815260040180806020018281038252602a815260200180614cde602a913960400191505060405180910390fd5b60008a6001600160801b031661342283600160401b87613a60565b039050600160801b81106134675760405162461bcd60e51b8152600401808060200182810382526021815260200180614cbd6021913960400191505060405180910390fd5b6fffffffffffffffffffffff172b5aefff811061348b576001600160801b03613494565b8064e8d4a51000015b9b9a5050505050505050505050565b6000806134bc84612dd7876001600160801b03166139d8565b905060006134d2600160401b612df286856139f6565b9050600081600f0b1361351a576040805162461bcd60e51b81526020600482018190526024820152600080516020614ddb833981519152604482015290519081900360640190fd5b6001600160801b0388811690881601600160801b8110613581576040805162461bcd60e51b815260206004820152601c60248201527f5969656c644d6174683a20546f6f206d75636820667944616920696e00000000604482015290519081900360640190fd5b60006135928a84600160401b613a60565b6135a18385600160401b613a60565b6135b08d86600160401b613a60565b03019050600160801b81106135f65760405162461bcd60e51b8152600401808060200182810382526024815260200180614dfb6024913960400191505060405180910390fd5b600061360782600160401b86613a60565b8c6001600160801b0316039050600160801b81106131bf5760405162461bcd60e51b8152600401808060200182810382526021815260200180614cbd6021913960400191505060405180910390fd5b6001600160a01b0382166136b1576040805162461bcd60e51b815260206004820152601f60248201527f45524332303a206d696e7420746f20746865207a65726f206164647265737300604482015290519081900360640190fd5b6136bd600083836139d3565b6002546136d0908263ffffffff612d0c16565b6002556001600160a01b0382166000908152602081905260409020546136fc908263ffffffff612d0c16565b6001600160a01b0383166000818152602081815260408083209490945583518581529351929391927fddf252ad1be2c89b69c2b068fc378daa952ba7f163c4a11628f55a4df523b3ef9281900390910190a35050565b60008261376157506000610969565b8282028284828161376e57fe5b0414610c435760405162461bcd60e51b8152600401808060200182810382526021815260200180614d086021913960400191505060405180910390fd5b6000610c4383836040518060400160405280601a81526020017f536166654d6174683a206469766973696f6e206279207a65726f000000000000815250613b16565b6001600160a01b0382166138325760405162461bcd60e51b8152600401808060200182810382526021815260200180614d516021913960400191505060405180910390fd5b61383e826000836139d3565b61388181604051806060016040528060228152602001614c33602291396001600160a01b038516600090815260208190526040902054919063ffffffff612cb216565b6001600160a01b0383166000908152602081905260409020556002546138ad908263ffffffff613b7b16565b6002556040805182815290516000916001600160a01b038516917fddf252ad1be2c89b69c2b068fc378daa952ba7f163c4a11628f55a4df523b3ef9181900360200190a35050565b6001600160a01b0380831660009081526007602090815260408083209385168352929052205460ff1661396f576040805162461bcd60e51b815260206004820152601e60248201527f44656c656761626c653a20416c726561647920756e64656c6567617465640000604482015290519081900360640190fd5b6001600160a01b038083166000818152600760209081526040808320948616808452948252808320805460ff191690558051928352517f045b0fef01772d2fbba53dbd38c9777806eac0865b00af43abcfbcaf50da92069281900390910190a35050565b505050565b6000677fffffffffffffff8211156139ef57600080fd5b5060401b90565b6000600f83810b9083900b0260401d60016001607f1b03198112801590613a24575060016001607f1b038113155b610c4357600080fd5b6000600f82810b9084900b0360016001607f1b03198112801590613a24575060016001607f1b03811315610c4357600080fd5b60006001600160801b038216613a7557600080fd5b6001600160801b038416613a9e576001600160801b038316613a9657600080fd5b506000610c43565b6000826001600160801b0316846001600160801b0316613abd87613bbd565b6001600160801b03036001600160801b03160281613ad757fe5b0490506001600160801b03811115613af3576000915050610c43565b613b05816001600160801b0303614408565b6001600160801b0316915050610c43565b60008183613b655760405162461bcd60e51b8152602060048201818152835160248401528351909283926044909101919085019080838360008315610f37578181015183820152602001610f1f565b506000838581613b7157fe5b0495945050505050565b6000610c4383836040518060400160405280601e81526020017f536166654d6174683a207375627472616374696f6e206f766572666c6f770000815250612cb2565b60006001600160801b038216613bd257600080fd5b6001600160801b038216607f60791b600160401b821015613bff5760409190911b9060016001607f1b0319015b600160601b821015613c265760209190911b906f3fffffffffffffffffffffffffffffff19015b600160701b821015613c4d5760109190911b906f1fffffffffffffffffffffffffffffff19015b600160781b821015613c745760089190911b906f0fffffffffffffffffffffffffffffff19015b6001607c1b821015613c9b5760049190911b906f07ffffffffffffffffffffffffffffff19015b6001607e1b821015613cc25760029190911b906f03ffffffffffffffffffffffffffffff19015b6001607f1b821015613ce95760019190911b906f01ffffffffffffffffffffffffffffff19015b908002607f1c90600160801b8210613d095760019190911c90600160781b175b908002607f1c90600160801b8210613d295760019190911c90600160771b175b908002607f1c90600160801b8210613d495760019190911c90600160761b175b908002607f1c90600160801b8210613d695760019190911c90600160751b175b908002607f1c90600160801b8210613d895760019190911c90600160741b175b908002607f1c90600160801b8210613da95760019190911c90600160731b175b908002607f1c90600160801b8210613dc95760019190911c90600160721b175b908002607f1c90600160801b8210613de95760019190911c90600160711b175b908002607f1c90600160801b8210613e095760019190911c90600160701b175b908002607f1c90600160801b8210613e295760019190911c906001606f1b175b908002607f1c90600160801b8210613e495760019190911c906001606e1b175b908002607f1c90600160801b8210613e695760019190911c906001606d1b175b908002607f1c90600160801b8210613e895760019190911c906001606c1b175b908002607f1c90600160801b8210613ea95760019190911c906001606b1b175b908002607f1c90600160801b8210613ec95760019190911c906001606a1b175b908002607f1c90600160801b8210613ee95760019190911c90600160691b175b908002607f1c90600160801b8210613f095760019190911c90600160681b175b908002607f1c90600160801b8210613f295760019190911c90600160671b175b908002607f1c90600160801b8210613f495760019190911c90600160661b175b908002607f1c90600160801b8210613f695760019190911c90600160651b175b908002607f1c90600160801b8210613f895760019190911c90600160641b175b908002607f1c90600160801b8210613fa95760019190911c90600160631b175b908002607f1c90600160801b8210613fc95760019190911c90600160621b175b908002607f1c90600160801b8210613fe95760019190911c90600160611b175b908002607f1c90600160801b82106140095760019190911c90600160601b175b908002607f1c90600160801b82106140295760019190911c906001605f1b175b908002607f1c90600160801b82106140495760019190911c906001605e1b175b908002607f1c90600160801b82106140695760019190911c906001605d1b175b908002607f1c90600160801b82106140895760019190911c906001605c1b175b908002607f1c90600160801b82106140a95760019190911c906001605b1b175b908002607f1c90600160801b82106140c95760019190911c906001605a1b175b908002607f1c90600160801b82106140e95760019190911c90600160591b175b908002607f1c90600160801b82106141095760019190911c90600160581b175b908002607f1c90600160801b82106141295760019190911c90600160571b175b908002607f1c90600160801b82106141495760019190911c90600160561b175b908002607f1c90600160801b82106141695760019190911c90600160551b175b908002607f1c90600160801b82106141895760019190911c90600160541b175b908002607f1c90600160801b82106141a95760019190911c90600160531b175b908002607f1c90600160801b82106141c95760019190911c90600160521b175b908002607f1c90600160801b82106141e95760019190911c90600160511b175b908002607f1c90600160801b82106142095760019190911c90600160501b175b908002607f1c90600160801b82106142295760019190911c906001604f1b175b908002607f1c90600160801b82106142495760019190911c906001604e1b175b908002607f1c90600160801b82106142695760019190911c906001604d1b175b908002607f1c90600160801b82106142895760019190911c906001604c1b175b908002607f1c90600160801b82106142a95760019190911c906001604b1b175b908002607f1c90600160801b82106142c95760019190911c906001604a1b175b908002607f1c90600160801b82106142e95760019190911c90600160491b175b908002607f1c90600160801b82106143095760019190911c90600160481b175b908002607f1c90600160801b82106143295760019190911c90600160471b175b908002607f1c90600160801b82106143495760019190911c90600160461b175b908002607f1c90600160801b82106143695760019190911c90600160451b175b908002607f1c90600160801b82106143895760019190911c90600160441b175b908002607f1c90600160801b82106143a95760019190911c90600160431b175b908002607f1c90600160801b82106143c95760019190911c90600160421b175b908002607f1c90600160801b82106143e95760019190911c90600160411b175b908002607f1c90600160801b8210610c4357600160401b179392505050565b60006001607f1b600160781b831615614431576fb504f333f9de6484597d89b3754abe9f02607f1c5b600160771b831615614453576f9837f0518db8a96f46ad23182e42f6f602607f1c5b600160761b831615614475576f8b95c1e3ea8bd6e6fbe4628758a53c9002607f1c5b600160751b831615614497576f85aac367cc487b14c5c95b8c2154c1b202607f1c5b600160741b8316156144b9576f82cd8698ac2ba1d73e2a475b46520bff02607f1c5b600160731b8316156144db576f8164d1f3bc0307737be56527bd14def402607f1c5b600160721b8316156144fd576f80b1ed4fd999ab6c25335719b6e6fd2002607f1c5b600160711b83161561451f576f8058d7d2d5e5f6b094d589f608ee4aa202607f1c5b600160701b831615614541576f802c6436d0e04f50ff8ce94a6797b3ce02607f1c5b6001606f1b831615614563576f8016302f174676283690dfe44d11d00802607f1c5b6001606e1b831615614585576f800b179c82028fd0945e54e2ae18f2f002607f1c5b6001606d1b8316156145a7576f80058baf7fee3b5d1c718b38e549cb9302607f1c5b6001606c1b8316156145c9576f8002c5d00fdcfcb6b6566a58c048be1f02607f1c5b6001606b1b8316156145eb576f800162e61bed4a48e84c2e1a463473d902607f1c5b6001606a1b83161561460d576f8000b17292f702a3aa22beacca94901302607f1c5b600160691b83161561462f576f800058b92abbae02030c5fa5256f41fe02607f1c5b600160681b831615614651576f80002c5c8dade4d71776c0f4dbea67d602607f1c5b600160671b831615614673576f8000162e44eaf636526be456600bdbe402607f1c5b600160661b831615614695576f80000b1721fa7c188307016c1cd4e8b602607f1c5b600160651b8316156146b7576f8000058b90de7e4cecfc487503488bb102607f1c5b600160641b8316156146d9576f800002c5c8678f36cbfce50a6de60b1402607f1c5b600160631b8316156146fb576f80000162e431db9f80b2347b5d62e51602607f1c5b600160621b83161561471d576f800000b1721872d0c7b08cf1e011415202607f1c5b600160611b83161561473f576f80000058b90c1aa8a5c3736cb77e8dff02607f1c5b600160601b831615614761576f8000002c5c8605a4635f2efc2362d97802607f1c5b6001605f1b831615614783576f800000162e4300e635cf4a109e3939bd02607f1c5b6001605e1b8316156147a5576f8000000b17217ff81bef9c551590cf8302607f1c5b6001605d1b8316156147c7576f800000058b90bfdd4e39cd52c0cfa27c02607f1c5b6001605c1b8316156147e9576f80000002c5c85fe6f72d669e0e76e41102607f1c5b6001605b1b83161561480b576f8000000162e42ff18f9ad35186d0df2802607f1c5b6001605a1b83161561482d576f80000000b17217f84cce71aa0dcfffe702607f1c5b600160591b83161561484f576f8000000058b90bfc07a77ad56ed22aaa02607f1c5b600160581b831615614871576f800000002c5c85fdfc23cdead40da8d602607f1c5b600160571b831615614893576f80000000162e42fefc25eb1571853a6602607f1c5b600160561b8316156148b5576f800000000b17217f7d97f692baacded502607f1c5b600160551b8316156148d7576f80000000058b90bfbead3b8b5dd254d702607f1c5b600160541b8316156148f9576f8000000002c5c85fdf4eedd62f084e6702607f1c5b600160531b83161561491b576f800000000162e42fefa58aef378bf58602607f1c5b600160521b83161561493d576f8000000000b17217f7d24a78a3c7ef0202607f1c5b600160511b83161561495f576f800000000058b90bfbe9067c93e474a602607f1c5b600160501b831615614981576f80000000002c5c85fdf47b8e5a72599f02607f1c5b6001604f1b8316156149a3576f8000000000162e42fefa3bdb315934a202607f1c5b6001604e1b8316156149c5576f80000000000b17217f7d1d7299b49c4602607f1c5b6001604d1b8316156149e7576f8000000000058b90bfbe8e9a8d1c4ea002607f1c5b6001604c1b831615614a09576f800000000002c5c85fdf4745969ea76f02607f1c5b6001604b1b831615614a2b576f80000000000162e42fefa3a0df5373bf02607f1c5b6001604a1b831615614a4d576f800000000000b17217f7d1cff4aac1e102607f1c5b600160491b831615614a6f576f80000000000058b90bfbe8e7db95a2f102607f1c5b600160481b831615614a91576f8000000000002c5c85fdf473e61ae1f802607f1c5b600160471b831615614ab3576f800000000000162e42fefa39f121751c02607f1c5b600160461b831615614ad5576f8000000000000b17217f7d1cf815bb9602607f1c5b600160451b831615614af7576f800000000000058b90bfbe8e7bec1e0d02607f1c5b600160441b831615614b19576f80000000000002c5c85fdf473dee5f1702607f1c5b600160431b831615614b3b576f8000000000000162e42fefa39ef5438f02607f1c5b600160421b831615614b5d576f80000000000000b17217f7d1cf7a26c802607f1c5b600160411b831615614b7f576f8000000000000058b90bfbe8e7bcf4a402607f1c5b600160401b831615614ba1576f800000000000002c5c85fdf473de72a202607f1c5b607f607984901c811690036001600160801b03161c905091905056fe5969656c644d6174683a20496e73756666696369656e7420667944616920726573657276657345524332303a207472616e7366657220746f20746865207a65726f20616464726573735969656c644d6174683a20526573756c74696e6720667944616920726573657276657320746f6f206869676845524332303a206275726e20616d6f756e7420657863656564732062616c616e636545524332303a20617070726f766520746f20746865207a65726f206164647265737345524332303a207472616e7366657220616d6f756e7420657863656564732062616c616e63653f207773c457c66e004ab34e2ce7ae1fcafc7b4c3286f63997c87428014219155969656c644d6174683a20526f756e64696e6720696e6475636564206572726f725969656c644d6174683a20526573756c74696e672044616920726573657276657320746f6f2068696768536166654d6174683a206d756c7469706c69636174696f6e206f766572666c6f7745524332303a207472616e7366657220616d6f756e74206578636565647320616c6c6f77616e636545524332303a206275726e2066726f6d20746865207a65726f2061646472657373506f6f6c3a204f6e6c7920486f6c646572204f722044656c656761746500000045524332303a207472616e736665722066726f6d20746865207a65726f206164647265737345524332303a20617070726f76652066726f6d20746865207a65726f20616464726573735969656c644d6174683a20546f6f206661722066726f6d206d617475726974795969656c644d6174683a20496e73756666696369656e742044616920726573657276657345524332303a2064656372656173656420616c6c6f77616e63652062656c6f77207a65726fa2646970667358221220b3de1618bd32b98c3d04a95de8b3b6351420dbf0ee73a778c989d14f4ece4f0864736f6c634300060a0033c89efdaa54c0f20c7adf612882df0950f5a951637e0307cdcb4c672f298b8bc65065726d69742861646472657373206f776e65722c61646472657373207370656e6465722c75696e743235362076616c75652c75696e74323536206e6f6e63652c75696e7432353620646561646c696e6529454950373132446f6d61696e28737472696e67206e616d652c737472696e672076657273696f6e2c75696e7432353620636861696e49642c6164647265737320766572696679696e67436f6e747261637429",
  "immutableReferences": {
    "9920": [
      {
        "length": 32,
        "start": 2548
      },
      {
        "length": 32,
        "start": 7405
      }
    ],
    "9922": [
      {
        "length": 32,
        "start": 2649
      },
      {
        "length": 32,
        "start": 3328
      }
    ],
    "10185": [
      {
        "length": 32,
        "start": 3163
      },
      {
        "length": 32,
        "start": 9129
      }
    ],
    "10187": [
      {
        "length": 32,
        "start": 3208
      },
      {
        "length": 32,
        "start": 9238
      }
    ],
    "27067": [
      {
        "length": 32,
        "start": 2970
      },
      {
        "length": 32,
        "start": 3366
      },
      {
        "length": 32,
        "start": 3500
      },
      {
        "length": 32,
        "start": 4281
      },
      {
        "length": 32,
        "start": 4956
      },
      {
        "length": 32,
        "start": 5228
      },
      {
        "length": 32,
        "start": 5374
      },
      {
        "length": 32,
        "start": 5672
      },
      {
        "length": 32,
        "start": 5818
      },
      {
        "length": 32,
        "start": 5919
      },
      {
        "length": 32,
        "start": 6053
      },
      {
        "length": 32,
        "start": 6122
      },
      {
        "length": 32,
        "start": 6519
      },
      {
        "length": 32,
        "start": 7281
      },
      {
        "length": 32,
        "start": 8300
      },
      {
        "length": 32,
        "start": 8935
      },
      {
        "length": 32,
        "start": 10446
      }
    ]
  },
  "source": "// SPDX-License-Identifier: GPL-3.0-or-later\npragma solidity ^0.6.10;\n\nimport \"@openzeppelin/contracts/token/ERC20/ERC20.sol\";\nimport \"@openzeppelin/contracts/token/ERC20/IERC20.sol\";\nimport \"./YieldMath.sol\";\nimport \"../helpers/Delegable.sol\";\nimport \"../helpers/ERC20Permit.sol\";\nimport \"../interfaces/IPot.sol\";\nimport \"../interfaces/IFYDai.sol\";\nimport \"../interfaces/IPool.sol\";\n\n\n/// @dev The Pool contract exchanges Dai for fyDai at a price defined by a specific formula.\ncontract Pool is IPool, Delegable(), ERC20Permit {\n\n    event Trade(uint256 maturity, address indexed from, address indexed to, int256 daiTokens, int256 fyDaiTokens);\n    event Liquidity(uint256 maturity, address indexed from, address indexed to, int256 daiTokens, int256 fyDaiTokens, int256 poolTokens);\n\n    int128 constant public k = int128(uint256((1 << 64)) / 126144000); // 1 / Seconds in 4 years, in 64.64\n    int128 constant public g1 = int128(uint256((950 << 64)) / 1000); // To be used when selling Dai to the pool. All constants are `ufixed`, to divide them they must be converted to uint256\n    int128 constant public g2 = int128(uint256((1000 << 64)) / 950); // To be used when selling fyDai to the pool. All constants are `ufixed`, to divide them they must be converted to uint256\n    uint128 immutable public maturity;\n\n    IERC20 public override dai;\n    IFYDai public override fyDai;\n\n    constructor(address dai_, address fyDai_, string memory name_, string memory symbol_)\n        public\n        ERC20Permit(name_, symbol_)\n    {\n        dai = IERC20(dai_);\n        fyDai = IFYDai(fyDai_);\n\n        maturity = toUint128(fyDai.maturity());\n    }\n\n    /// @dev Trading can only be done before maturity\n    modifier beforeMaturity() {\n        require(\n            now < maturity,\n            \"Pool: Too late\"\n        );\n        _;\n    }\n\n    /// @dev Overflow-protected addition, from OpenZeppelin\n    function add(uint128 a, uint128 b)\n        internal pure returns (uint128)\n    {\n        uint128 c = a + b;\n        require(c >= a, \"Pool: Dai reserves too high\");\n\n        return c;\n    }\n\n    /// @dev Overflow-protected substraction, from OpenZeppelin\n    function sub(uint128 a, uint128 b) internal pure returns (uint128) {\n        require(b <= a, \"Pool: fyDai reserves too low\");\n        uint128 c = a - b;\n\n        return c;\n    }\n\n    /// @dev Safe casting from uint256 to uint128\n    function toUint128(uint256 x) internal pure returns(uint128) {\n        require(\n            x <= type(uint128).max,\n            \"Pool: Cast overflow\"\n        );\n        return uint128(x);\n    }\n\n    /// @dev Safe casting from uint256 to int256\n    function toInt256(uint256 x) internal pure returns(int256) {\n        require(\n            x <= uint256(type(int256).max),\n            \"Pool: Cast overflow\"\n        );\n        return int256(x);\n    }\n\n    /// @dev Mint initial liquidity tokens.\n    /// The liquidity provider needs to have called `dai.approve`\n    /// @param daiIn The initial Dai liquidity to provide.\n    function init(uint128 daiIn)\n        external\n        beforeMaturity\n    {\n        require(\n            totalSupply() == 0,\n            \"Pool: Already initialized\"\n        );\n        // no fyDai transferred, because initial fyDai deposit is entirely virtual\n        dai.transferFrom(msg.sender, address(this), daiIn);\n        _mint(msg.sender, daiIn);\n        emit Liquidity(maturity, msg.sender, msg.sender, -toInt256(daiIn), 0, toInt256(daiIn));\n    }\n\n    /// @dev Mint liquidity tokens in exchange for adding dai and fyDai\n    /// The liquidity provider needs to have called `dai.approve` and `fyDai.approve`.\n    /// @param from Wallet providing the dai and fyDai. Must have approved the operator with `pool.addDelegate(operator)`.\n    /// @param to Wallet receiving the minted liquidity tokens.\n    /// @param daiOffered Amount of `dai` being invested, an appropriate amount of `fyDai` to be invested alongside will be calculated and taken by this function from the caller.\n    /// @return The amount of liquidity tokens minted.\n    function mint(address from, address to, uint256 daiOffered)\n        external override\n        onlyHolderOrDelegate(from, \"Pool: Only Holder Or Delegate\")\n        returns (uint256)\n    {\n        uint256 supply = totalSupply();\n        uint256 daiReserves = dai.balanceOf(address(this));\n        // use the actual reserves rather than the virtual reserves\n        uint256 fyDaiReserves = fyDai.balanceOf(address(this));\n        uint256 tokensMinted = supply.mul(daiOffered).div(daiReserves);\n        uint256 fyDaiRequired = fyDaiReserves.mul(tokensMinted).div(supply);\n\n        require(dai.transferFrom(from, address(this), daiOffered));\n        require(fyDai.transferFrom(from, address(this), fyDaiRequired));\n        _mint(to, tokensMinted);\n        emit Liquidity(maturity, from, to, -toInt256(daiOffered), -toInt256(fyDaiRequired), toInt256(tokensMinted));\n\n        return tokensMinted;\n    }\n\n    /// @dev Burn liquidity tokens in exchange for dai and fyDai.\n    /// The liquidity provider needs to have called `pool.approve`.\n    /// @param from Wallet providing the liquidity tokens. Must have approved the operator with `pool.addDelegate(operator)`.\n    /// @param to Wallet receiving the dai and fyDai.\n    /// @param tokensBurned Amount of liquidity tokens being burned.\n    /// @return The amount of reserve tokens returned (daiTokens, fyDaiTokens).\n    function burn(address from, address to, uint256 tokensBurned)\n        external override\n        onlyHolderOrDelegate(from, \"Pool: Only Holder Or Delegate\")\n        returns (uint256, uint256)\n    {\n        uint256 supply = totalSupply();\n        uint256 daiReserves = dai.balanceOf(address(this));\n        // use the actual reserves rather than the virtual reserves\n        uint256 daiReturned;\n        uint256 fyDaiReturned;\n        { // avoiding stack too deep\n            uint256 fyDaiReserves = fyDai.balanceOf(address(this));\n            daiReturned = tokensBurned.mul(daiReserves).div(supply);\n            fyDaiReturned = tokensBurned.mul(fyDaiReserves).div(supply);\n        }\n\n        _burn(from, tokensBurned);\n        dai.transfer(to, daiReturned);\n        fyDai.transfer(to, fyDaiReturned);\n        emit Liquidity(maturity, from, to, toInt256(daiReturned), toInt256(fyDaiReturned), -toInt256(tokensBurned));\n\n        return (daiReturned, fyDaiReturned);\n    }\n\n    /// @dev Sell Dai for fyDai\n    /// The trader needs to have called `dai.approve`\n    /// @param from Wallet providing the dai being sold. Must have approved the operator with `pool.addDelegate(operator)`.\n    /// @param to Wallet receiving the fyDai being bought\n    /// @param daiIn Amount of dai being sold that will be taken from the user's wallet\n    /// @return Amount of fyDai that will be deposited on `to` wallet\n    function sellDai(address from, address to, uint128 daiIn)\n        external override\n        onlyHolderOrDelegate(from, \"Pool: Only Holder Or Delegate\")\n        returns(uint128)\n    {\n        uint128 fyDaiOut = sellDaiPreview(daiIn);\n\n        dai.transferFrom(from, address(this), daiIn);\n        fyDai.transfer(to, fyDaiOut);\n        emit Trade(maturity, from, to, -toInt256(daiIn), toInt256(fyDaiOut));\n\n        return fyDaiOut;\n    }\n\n    /// @dev Returns how much fyDai would be obtained by selling `daiIn` dai\n    /// @param daiIn Amount of dai hypothetically sold.\n    /// @return Amount of fyDai hypothetically bought.\n    function sellDaiPreview(uint128 daiIn)\n        public view override\n        beforeMaturity\n        returns(uint128)\n    {\n        uint128 daiReserves = getDaiReserves();\n        uint128 fyDaiReserves = getFYDaiReserves();\n\n        uint128 fyDaiOut = YieldMath.fyDaiOutForDaiIn(\n            daiReserves,\n            fyDaiReserves,\n            daiIn,\n            toUint128(maturity - now), // This can't be called after maturity\n            k,\n            g1\n        );\n\n        require(\n            sub(fyDaiReserves, fyDaiOut) >= add(daiReserves, daiIn),\n            \"Pool: fyDai reserves too low\"\n        );\n\n        return fyDaiOut;\n    }\n\n    /// @dev Buy Dai for fyDai\n    /// The trader needs to have called `fyDai.approve`\n    /// @param from Wallet providing the fyDai being sold. Must have approved the operator with `pool.addDelegate(operator)`.\n    /// @param to Wallet receiving the dai being bought\n    /// @param daiOut Amount of dai being bought that will be deposited in `to` wallet\n    /// @return Amount of fyDai that will be taken from `from` wallet\n    function buyDai(address from, address to, uint128 daiOut)\n        external override\n        onlyHolderOrDelegate(from, \"Pool: Only Holder Or Delegate\")\n        returns(uint128)\n    {\n        uint128 fyDaiIn = buyDaiPreview(daiOut);\n\n        fyDai.transferFrom(from, address(this), fyDaiIn);\n        dai.transfer(to, daiOut);\n        emit Trade(maturity, from, to, toInt256(daiOut), -toInt256(fyDaiIn));\n\n        return fyDaiIn;\n    }\n\n    /// @dev Returns how much fyDai would be required to buy `daiOut` dai.\n    /// @param daiOut Amount of dai hypothetically desired.\n    /// @return Amount of fyDai hypothetically required.\n    function buyDaiPreview(uint128 daiOut)\n        public view override\n        beforeMaturity\n        returns(uint128)\n    {\n        return YieldMath.fyDaiInForDaiOut(\n            getDaiReserves(),\n            getFYDaiReserves(),\n            daiOut,\n            toUint128(maturity - now), // This can't be called after maturity\n            k,\n            g2\n        );\n    }\n\n    /// @dev Sell fyDai for Dai\n    /// The trader needs to have called `fyDai.approve`\n    /// @param from Wallet providing the fyDai being sold. Must have approved the operator with `pool.addDelegate(operator)`.\n    /// @param to Wallet receiving the dai being bought\n    /// @param fyDaiIn Amount of fyDai being sold that will be taken from the user's wallet\n    /// @return Amount of dai that will be deposited on `to` wallet\n    function sellFYDai(address from, address to, uint128 fyDaiIn)\n        external override\n        onlyHolderOrDelegate(from, \"Pool: Only Holder Or Delegate\")\n        returns(uint128)\n    {\n        uint128 daiOut = sellFYDaiPreview(fyDaiIn);\n\n        fyDai.transferFrom(from, address(this), fyDaiIn);\n        dai.transfer(to, daiOut);\n        emit Trade(maturity, from, to, toInt256(daiOut), -toInt256(fyDaiIn));\n\n        return daiOut;\n    }\n\n    /// @dev Returns how much dai would be obtained by selling `fyDaiIn` fyDai.\n    /// @param fyDaiIn Amount of fyDai hypothetically sold.\n    /// @return Amount of Dai hypothetically bought.\n    function sellFYDaiPreview(uint128 fyDaiIn)\n        public view override\n        beforeMaturity\n        returns(uint128)\n    {\n        return YieldMath.daiOutForFYDaiIn(\n            getDaiReserves(),\n            getFYDaiReserves(),\n            fyDaiIn,\n            toUint128(maturity - now), // This can't be called after maturity\n            k,\n            g2\n        );\n    }\n\n    /// @dev Buy fyDai for dai\n    /// The trader needs to have called `dai.approve`\n    /// @param from Wallet providing the dai being sold. Must have approved the operator with `pool.addDelegate(operator)`.\n    /// @param to Wallet receiving the fyDai being bought\n    /// @param fyDaiOut Amount of fyDai being bought that will be deposited in `to` wallet\n    /// @return Amount of dai that will be taken from `from` wallet\n    function buyFYDai(address from, address to, uint128 fyDaiOut)\n        external override\n        onlyHolderOrDelegate(from, \"Pool: Only Holder Or Delegate\")\n        returns(uint128)\n    {\n        uint128 daiIn = buyFYDaiPreview(fyDaiOut);\n\n        dai.transferFrom(from, address(this), daiIn);\n        fyDai.transfer(to, fyDaiOut);\n        emit Trade(maturity, from, to, -toInt256(daiIn), toInt256(fyDaiOut));\n\n        return daiIn;\n    }\n\n\n    /// @dev Returns how much dai would be required to buy `fyDaiOut` fyDai.\n    /// @param fyDaiOut Amount of fyDai hypothetically desired.\n    /// @return Amount of Dai hypothetically required.\n    function buyFYDaiPreview(uint128 fyDaiOut)\n        public view override\n        beforeMaturity\n        returns(uint128)\n    {\n        uint128 daiReserves = getDaiReserves();\n        uint128 fyDaiReserves = getFYDaiReserves();\n\n        uint128 daiIn = YieldMath.daiInForFYDaiOut(\n            daiReserves,\n            fyDaiReserves,\n            fyDaiOut,\n            toUint128(maturity - now), // This can't be called after maturity\n            k,\n            g1\n        );\n\n        require(\n            sub(fyDaiReserves, fyDaiOut) >= add(daiReserves, daiIn),\n            \"Pool: fyDai reserves too low\"\n        );\n\n        return daiIn;\n    }\n\n    /// @dev Returns the \"virtual\" fyDai reserves\n    function getFYDaiReserves()\n        public view override\n        returns(uint128)\n    {\n        return toUint128(fyDai.balanceOf(address(this)) + totalSupply());\n    }\n\n    /// @dev Returns the Dai reserves\n    function getDaiReserves()\n        public view override\n        returns(uint128)\n    {\n        return toUint128(dai.balanceOf(address(this)));\n    }\n}\n",
  "sourcePath": "/Users/brucedonovan/dev/yield/yDai/contracts/pool/Pool.sol",
  "compiler": {
    "name": "solc",
    "version": "0.6.10+commit.00c0fcaf.Emscripten.clang"
  },
  "schemaVersion": "3.2.3",
  "updatedAt": "2020-10-06T08:33:42.200Z",
  "devdoc": {
    "details": "The Pool contract exchanges Dai for fyDai at a price defined by a specific formula.",
    "methods": {
      "addDelegate(address)": {
        "details": "Enable a delegate to act on the behalf of caller"
      },
      "addDelegateBySignature(address,address,uint256,uint8,bytes32,bytes32)": {
        "details": "Add a delegate through an encoded signature"
      },
      "allowance(address,address)": {
        "details": "See {IERC20-allowance}."
      },
      "approve(address,uint256)": {
        "details": "See {IERC20-approve}. Requirements: - `spender` cannot be the zero address."
      },
      "balanceOf(address)": {
        "details": "See {IERC20-balanceOf}."
      },
      "burn(address,address,uint256)": {
        "details": "Burn liquidity tokens in exchange for dai and fyDai. The liquidity provider needs to have called `pool.approve`.",
        "params": {
          "from": "Wallet providing the liquidity tokens. Must have approved the operator with `pool.addDelegate(operator)`.",
          "to": "Wallet receiving the dai and fyDai.",
          "tokensBurned": "Amount of liquidity tokens being burned."
        },
        "returns": {
          "_0": "The amount of reserve tokens returned (daiTokens, fyDaiTokens)."
        }
      },
      "buyDai(address,address,uint128)": {
        "details": "Buy Dai for fyDai The trader needs to have called `fyDai.approve`",
        "params": {
          "daiOut": "Amount of dai being bought that will be deposited in `to` wallet",
          "from": "Wallet providing the fyDai being sold. Must have approved the operator with `pool.addDelegate(operator)`.",
          "to": "Wallet receiving the dai being bought"
        },
        "returns": {
          "_0": "Amount of fyDai that will be taken from `from` wallet"
        }
      },
      "buyDaiPreview(uint128)": {
        "details": "Returns how much fyDai would be required to buy `daiOut` dai.",
        "params": {
          "daiOut": "Amount of dai hypothetically desired."
        },
        "returns": {
          "_0": "Amount of fyDai hypothetically required."
        }
      },
      "buyFYDai(address,address,uint128)": {
        "details": "Buy fyDai for dai The trader needs to have called `dai.approve`",
        "params": {
          "from": "Wallet providing the dai being sold. Must have approved the operator with `pool.addDelegate(operator)`.",
          "fyDaiOut": "Amount of fyDai being bought that will be deposited in `to` wallet",
          "to": "Wallet receiving the fyDai being bought"
        },
        "returns": {
          "_0": "Amount of dai that will be taken from `from` wallet"
        }
      },
      "buyFYDaiPreview(uint128)": {
        "details": "Returns how much dai would be required to buy `fyDaiOut` fyDai.",
        "params": {
          "fyDaiOut": "Amount of fyDai hypothetically desired."
        },
        "returns": {
          "_0": "Amount of Dai hypothetically required."
        }
      },
      "decimals()": {
        "details": "Returns the number of decimals used to get its user representation. For example, if `decimals` equals `2`, a balance of `505` tokens should be displayed to a user as `5,05` (`505 / 10 ** 2`). Tokens usually opt for a value of 18, imitating the relationship between Ether and Wei. This is the value {ERC20} uses, unless {_setupDecimals} is called. NOTE: This information is only used for _display_ purposes: it in no way affects any of the arithmetic of the contract, including {IERC20-balanceOf} and {IERC20-transfer}."
      },
      "decreaseAllowance(address,uint256)": {
        "details": "Atomically decreases the allowance granted to `spender` by the caller. This is an alternative to {approve} that can be used as a mitigation for problems described in {IERC20-approve}. Emits an {Approval} event indicating the updated allowance. Requirements: - `spender` cannot be the zero address. - `spender` must have allowance for the caller of at least `subtractedValue`."
      },
      "getDaiReserves()": {
        "details": "Returns the Dai reserves"
      },
      "getFYDaiReserves()": {
        "details": "Returns the \"virtual\" fyDai reserves"
      },
      "increaseAllowance(address,uint256)": {
        "details": "Atomically increases the allowance granted to `spender` by the caller. This is an alternative to {approve} that can be used as a mitigation for problems described in {IERC20-approve}. Emits an {Approval} event indicating the updated allowance. Requirements: - `spender` cannot be the zero address."
      },
      "init(uint128)": {
        "details": "Mint initial liquidity tokens. The liquidity provider needs to have called `dai.approve`",
        "params": {
          "daiIn": "The initial Dai liquidity to provide."
        }
      },
      "mint(address,address,uint256)": {
        "details": "Mint liquidity tokens in exchange for adding dai and fyDai The liquidity provider needs to have called `dai.approve` and `fyDai.approve`.",
        "params": {
          "daiOffered": "Amount of `dai` being invested, an appropriate amount of `fyDai` to be invested alongside will be calculated and taken by this function from the caller.",
          "from": "Wallet providing the dai and fyDai. Must have approved the operator with `pool.addDelegate(operator)`.",
          "to": "Wallet receiving the minted liquidity tokens."
        },
        "returns": {
          "_0": "The amount of liquidity tokens minted."
        }
      },
      "name()": {
        "details": "Returns the name of the token."
      },
      "permit(address,address,uint256,uint256,uint8,bytes32,bytes32)": {
        "details": "See {IERC2612-permit}. In cases where the free option is not a concern, deadline can simply be set to uint(-1), so it should be seen as an optional parameter"
      },
      "revokeDelegate(address)": {
        "details": "Stop a delegate from acting on the behalf of caller"
      },
      "sellDai(address,address,uint128)": {
        "details": "Sell Dai for fyDai The trader needs to have called `dai.approve`",
        "params": {
          "daiIn": "Amount of dai being sold that will be taken from the user's wallet",
          "from": "Wallet providing the dai being sold. Must have approved the operator with `pool.addDelegate(operator)`.",
          "to": "Wallet receiving the fyDai being bought"
        },
        "returns": {
          "_0": "Amount of fyDai that will be deposited on `to` wallet"
        }
      },
      "sellDaiPreview(uint128)": {
        "details": "Returns how much fyDai would be obtained by selling `daiIn` dai",
        "params": {
          "daiIn": "Amount of dai hypothetically sold."
        },
        "returns": {
          "_0": "Amount of fyDai hypothetically bought."
        }
      },
      "sellFYDai(address,address,uint128)": {
        "details": "Sell fyDai for Dai The trader needs to have called `fyDai.approve`",
        "params": {
          "from": "Wallet providing the fyDai being sold. Must have approved the operator with `pool.addDelegate(operator)`.",
          "fyDaiIn": "Amount of fyDai being sold that will be taken from the user's wallet",
          "to": "Wallet receiving the dai being bought"
        },
        "returns": {
          "_0": "Amount of dai that will be deposited on `to` wallet"
        }
      },
      "sellFYDaiPreview(uint128)": {
        "details": "Returns how much dai would be obtained by selling `fyDaiIn` fyDai.",
        "params": {
          "fyDaiIn": "Amount of fyDai hypothetically sold."
        },
        "returns": {
          "_0": "Amount of Dai hypothetically bought."
        }
      },
      "symbol()": {
        "details": "Returns the symbol of the token, usually a shorter version of the name."
      },
      "totalSupply()": {
        "details": "See {IERC20-totalSupply}."
      },
      "transfer(address,uint256)": {
        "details": "See {IERC20-transfer}. Requirements: - `recipient` cannot be the zero address. - the caller must have a balance of at least `amount`."
      },
      "transferFrom(address,address,uint256)": {
        "details": "See {IERC20-transferFrom}. Emits an {Approval} event indicating the updated allowance. This is not required by the EIP. See the note at the beginning of {ERC20}; Requirements: - `sender` and `recipient` cannot be the zero address. - `sender` must have a balance of at least `amount`. - the caller must have allowance for ``sender``'s tokens of at least `amount`."
      }
    }
  },
  "userdoc": {
    "methods": {}
  }
}